:020000040000FA
:100000000204D41205F5120560C280C281C282C208
:1000100083C284C285C290C291C292C293C295C269
:100020008743C74043F14075B52075EF0475B58E21
:10003000E5FF30E5FBE5B5541F900000F075B520F5
:10004000E0FF30E237050DE50D7002050C643C451C
:100050000C7029F50CF50D0513E5137002051264FB
:100060003C45127017F512F5130517E517700205D8
:1000700016640D45167005F516751701E50A60033F
:10008000020439E50B14700302015C1470030202D0
:100090003B14700302033B24036003020439C28053
:1000A000C281C282C283C284C285C290C291C292FE
:1000B000C293C295C287EF20E103020154750A0082
:1000C000750B01751000751101E517139291E51676
:1000D000A2E713E51713139292E517AE167802CE36
:1000E000A2E713CE13D8F8139293E517AE16780350
:1000F000CEA2E713CE13D8F8139295E51313928589
:10010000E512A2E713E51313139284E513AE1278F8
:1001100002CEA2E713CE13D8F8139283E513AE12E2
:100120007803CEA2E713CE13D8F8139282E513AE6C
:10013000127804CEA2E713CE13D8F8139281E513F8
:10014000AE127805CEA2E713CE13D8F8139280B280
:1001500090020027E4F50AF50B020334E517139229
:1001600091E516A2E713E51713139292E517AE1661
:100170007802CEA2E713CE13D8F8139293E517AE08
:10018000167803CEA2E713CE13D8F8139295E51391
:10019000139285E512A2E713E51313139284E51376
:1001A000AE127802CEA2E713CE13D8F8139283E5ED
:1001B00013AE127803CEA2E713CE13D8F8139282AF
:1001C000E513AE127804CEA2E713CE13D8F813923B
:1001D00081E513AE127805CEA2E713CE13D8F8133B
:1001E0009280B290E50D240AF509E4350CF508C3B8
:1001F000E509943CE50864809480400C74C42509AA
:10020000F50974FF3508F508850C18850D19740378
:100210002519F519E43518F518C3E519943CE518C6
:1002200064809480400C74C42519F51974FF351846
:10023000F518750A00750B02020027E51713929155
:10024000E516A2E713E51713139292E517AE167899
:1002500002CEA2E713CE13D8F8139293E517AE1689
:100260007803CEA2E713CE13D8F8139295E51313B3
:100270009285E512A2E713E51313139284E513AEFA
:10028000127802CEA2E713CE13D8F8139283E513A7
:10029000AE127803CEA2E713CE13D8F8139282E5FC
:1002A00013AE127804CEA2E713CE13D8F8139281BE
:1002B000E513AE127805CEA2E713CE13D8F8139249
:1002C00080B290E509B50D13E508B50C0EE4F50A0A
:1002D000F50B851010851111020027208613E511FA
:1002E0004510700DF50A750B01F51075110102002E
:1002F00027E519B50D28E518B50C23208620E51152
:10030000640145107018F50A750B038510108511EE
:1003100011F514751532F50E750F020200272086AF
:1003200003020027E511640145106003020027F570
:100330000A750B02F510F51102002730860302043E
:100340002AE4F50CF50D0513E51370020512643C63
:1003500045127017F512F5130517E517700205160B
:10036000640D45167005F516751701E50F150F702C
:1003700002150EE50F450E701FD3E5159405E51423
:10038000648094804012750E00750F0374FB251570
:10039000F51574FF3514F514E517139291E516A2BF
:1003A000E713E51713139292E517AE167802CEA263
:1003B000E713CE13D8F8139293E517AE167803CE51
:1003C000A2E713CE13D8F8139295E513139285E59F
:1003D00012A2E713E51313139284E513AE12780209
:1003E000CEA2E713CE13D8F8139283E513AE12789A
:1003F00003CEA2E713CE13D8F8139282E513AE1200
:100400007804CEA2E713CE13D8F8139281E513AE89
:10041000127805CEA2E713CE13D8F8139280C290BB
:10042000AF15AE141205D702033B20860302002746
:10043000750A00750B01020027E4F50AF50B0200AE
:1004400027AFA975AC0575AD60E5AC20E7FB75ACD1
:100450000675AD0EE5AC20E7FB75AC0975AD80E522
:10046000AC20E7FB75AC04E4F5ADE5AC20E7FB752B
:10047000AC0443AD80E5AC20E7FB75A9747D507CEE
:1004800001ED1D70011CED4C70F775AC85E5AC20DD
:10049000E7FBE5AD30E4F375AC0575AD60E5AC2088
:1004A000E7FB75AC0443AD40E5AC20E7FB7C017D88
:1004B00000ED1D70011CED4C70F775B5208FA9E59E
:1004C000A9C330E701D350F775AC0475ADDCE5ACDA
:1004D00020E7FB22787FE4F6D8FD75811A02051B20
:1004E000020003E493A3F8E493A34003F68001F22F
:1004F00008DFF48029E493A3F85407240CC8C3331D
:10050000C4540F4420C8834004F456800146F6DFEB
:10051000E4800B01020408102040809005AEE47EC8
:10052000019360BCA3FF543F30E509541FFEE493E0
:10053000A360010ECF54C025E060A840B8E493A3A7
:10054000FAE493A3F8E493A3C8C582C8CAC583CAD2
:10055000F0A3C8C582C8CAC583CADFE9DEE780BE8A
:10056000D2801205D3C280D2811205D3C281D28239
:100570001205D3C282D2831205D3C283D28412055C
:10058000D3C284D2851205D3C285D2901205D3C2BC
:1005900090D2911205D3C291D2921205D3C292D2B7
:1005A000931205D3C293D2951205D3C29522020AA3
:1005B00000000210000002080000021800000214EF
:1005C0000000020E0000020C00000212000C0216D5
:1005D000000C007F147E00EF7805C333CE33CED8F5
:1005E000F9FFD3EF9400EE648094804007EF1F7012
:1005F000F11E80EE2285A71A12062112063A120673
:100600003312061112064112044112062A851AA756
:100610002243D5107590C075A52F75F22F75D5C0E2
:1006200022E4F5A753D9BFF5D92275A903E5A9306E
:10063000E7FB2275804075A4BF2253DF7F75DC087D
:050640002275E34022D9
:00000001FF
