:020000040000FA
:100000000204D11205F212055DC280C281C282C211
:1000100083C284C285C290C291C292C293C295C269
:100020008743C74043F14075B58EE5FF30E5FBD20D
:1000300087E5B5541F900000F043B520E0FF30E2A3
:1000400037050DE50D7002050C643C450C7029F573
:100050000CF50D0513E51370020512643C45127092
:1000600017F512F5130517E51770020516640D450F
:10007000167005F516751701E50A600302042FE5F1
:100080000B1470030201561470030202351470033E
:100090000203352403600302042FC280C281C2829E
:1000A000C283C284C285C290C291C292C293C295D9
:1000B000EF20E10302014E750A00750B0175100077
:1000C000751101E517139291E516A2E713E51713D1
:1000D000139292E517AE167802CEA2E713CE13D88C
:1000E000F8139293E517AE167803CEA2E713CE135A
:1000F000D8F8139295E513139285E512A2E713E55C
:100100001313139284E513AE127802CEA2E713CE36
:1001100013D8F8139283E513AE127803CEA2E71337
:10012000CE13D8F8139282E513AE127804CEA2E76C
:1001300013CE13D8F8139281E513AE127805CEA230
:10014000E713CE13D8F8139280B290020434E4F58A
:100150000AF50B02032EE517139291E516A2E71399
:10016000E51713139292E517AE167802CEA2E713A5
:10017000CE13D8F8139293E517AE167803CEA2E704
:1001800013CE13D8F8139295E513139285E512A2B6
:10019000E713E51313139284E513AE127802CEA28F
:1001A000E713CE13D8F8139283E513AE127803CE7B
:1001B000A2E713CE13D8F8139282E513AE12780497
:1001C000CEA2E713CE13D8F8139281E513AE1278BE
:1001D00005CEA2E713CE13D8F8139280B290E50DA6
:1001E000240AF509E4350CF508C3E509943CE50853
:1001F00064809480400C74C42509F50974FF3508A7
:10020000F508850C18850D1974032519F519E435C1
:1002100018F518C3E519943CE51864809480400CE7
:1002200074C42519F51974FF3518F518750A007589
:100230000B02020434E517139291E516A2E713E5C9
:100240001713139292E517AE167802CEA2E713CEDB
:1002500013D8F8139293E517AE167803CEA2E713DE
:10026000CE13D8F8139295E513139285E512A2E701
:1002700013E51313139284E513AE127802CEA2E7AE
:1002800013CE13D8F8139283E513AE127803CEA2DF
:10029000E713CE13D8F8139282E513AE127804CE8A
:1002A000A2E713CE13D8F8139281E513AE127805A6
:1002B000CEA2E713CE13D8F8139280B290E509B519
:1002C0000D13E508B50C0EE4F50AF50B8510108545
:1002D0001111020434208613E5114510700DF50A42
:1002E000750B01F510751101020434E519B50D28DF
:1002F000E518B50C23208620E5116401451070181F
:10030000F50A750B03851010851111F5147515325A
:10031000F50E750F02020434208603020434E51141
:10032000640145106003020434F50A750B02F510F0
:10033000F511020434308603020424E4F50CF50DB3
:100340000513E51370020512643C45127017F5128F
:10035000F5130517E51770020516640D45167005AF
:10036000F516751701E50F150F7002150EE50F450F
:100370000E701FD3E5159405E51464809480401237
:10038000750E00750F0374FB2515F51574FF3514F4
:10039000F514E517139291E516A2E713E517131369
:1003A0009292E517AE167802CEA2E713CE13D8F8D4
:1003B000139293E517AE167803CEA2E713CE13D8A7
:1003C000F8139295E513139285E512A2E713E5134E
:1003D00013139284E513AE127802CEA2E713CE1364
:1003E000D8F8139283E513AE127803CEA2E713CEAA
:1003F00013D8F8139282E513AE127804CEA2E71355
:10040000CE13D8F8139281E513AE127805CEA2E789
:1004100013CE13D8F8139280C290AF15AE14120504
:10042000D402033530860D750A00750B018005E492
:10043000F50AF50BC287020027AFA975AC0575ADAB
:1004400060E5AC20E7FB75AC0675AD8EE5AC20E74A
:10045000FB75AC0975AD80E5AC20E7FB75AC04E439
:10046000F5ADE5AC20E7FB75AC0443AD80E5AC2011
:10047000E7FB75A9747D507C01ED1D70011CED4CEE
:1004800070F775AC85E5AC20E7FBE5AD30E4F375BE
:10049000AC86E5AC20E7FBE5AD30E6F375AC057561
:1004A000ADC0E5AC20E7FB75AC047C017D00ED1D23
:1004B00070011CED4C70F775B5208FA9E5A9C3300C
:1004C000E701D350F775AC0475AD9CE5AC20E7FBB4
:1004D00022787FE4F6D8FD75811A02051802000320
:1004E000E493A3F8E493A34003F68001F208DFF459
:1004F0008029E493A3F85407240CC8C333C4540FD1
:100500004420C8834004F456800146F6DFE4800BA3
:1005100001020408102040809005ABE47E01936046
:10052000BCA3FF543F30E509541FFEE493A36001D0
:100530000ECF54C025E060A840B8E493A3FAE4933A
:10054000A3F8E493A3C8C582C8CAC583CAF0A3C8E8
:10055000C582C8CAC583CADFE9DEE780BED2801281
:1005600005D0C280D2811205D0C281D2821205D0BC
:10057000C282D2831205D0C283D2841205D0C28433
:10058000D2851205D0C285D2901205D0C290D291E8
:100590001205D0C291D2921205D0C292D293120506
:1005A000D0C293D2951205D0C29522020A00000251
:1005B00010000002080000021800000214000002EF
:1005C0000E0000020C00000212000C0216000C00CB
:1005D0007F147E00EF7805C333CE33CED8F9FFD336
:1005E000EF9400EE648094804007EF1F70F11E804E
:1005F000EE2285A71A12062E1206401206211206B6
:100600000E120647120439120637851AA72243D55F
:1006100010E4F5A77590C075A52F75F22F75D5C09C
:100620002275804075A4BF75A70F75990422E4F563
:10063000A753D9BFF5D92275A903E5A930E7FB2255
:0B06400053DF7F75DC082275E34022C9
:00000001FF
